{
  "contractName": "Composable",
  "abi": [
    {
      "constant": true,
      "inputs": [],
      "name": "name",
      "outputs": [
        {
          "name": "",
          "type": "string"
        }
      ],
      "payable": false,
      "stateMutability": "view",
      "type": "function"
    },
    {
      "constant": true,
      "inputs": [
        {
          "name": "_tokenId",
          "type": "uint256"
        }
      ],
      "name": "getApproved",
      "outputs": [
        {
          "name": "",
          "type": "address"
        }
      ],
      "payable": false,
      "stateMutability": "view",
      "type": "function"
    },
    {
      "constant": false,
      "inputs": [
        {
          "name": "_to",
          "type": "address"
        },
        {
          "name": "_tokenId",
          "type": "uint256"
        }
      ],
      "name": "approve",
      "outputs": [],
      "payable": false,
      "stateMutability": "nonpayable",
      "type": "function"
    },
    {
      "constant": true,
      "inputs": [],
      "name": "totalSupply",
      "outputs": [
        {
          "name": "",
          "type": "uint256"
        }
      ],
      "payable": false,
      "stateMutability": "view",
      "type": "function"
    },
    {
      "constant": false,
      "inputs": [
        {
          "name": "_from",
          "type": "address"
        },
        {
          "name": "_to",
          "type": "address"
        },
        {
          "name": "_tokenId",
          "type": "uint256"
        }
      ],
      "name": "transferFrom",
      "outputs": [],
      "payable": false,
      "stateMutability": "nonpayable",
      "type": "function"
    },
    {
      "constant": true,
      "inputs": [
        {
          "name": "_owner",
          "type": "address"
        },
        {
          "name": "_index",
          "type": "uint256"
        }
      ],
      "name": "tokenOfOwnerByIndex",
      "outputs": [
        {
          "name": "",
          "type": "uint256"
        }
      ],
      "payable": false,
      "stateMutability": "view",
      "type": "function"
    },
    {
      "constant": false,
      "inputs": [
        {
          "name": "_from",
          "type": "address"
        },
        {
          "name": "_to",
          "type": "address"
        },
        {
          "name": "_tokenId",
          "type": "uint256"
        }
      ],
      "name": "safeTransferFrom",
      "outputs": [],
      "payable": false,
      "stateMutability": "nonpayable",
      "type": "function"
    },
    {
      "constant": true,
      "inputs": [
        {
          "name": "_tokenId",
          "type": "uint256"
        }
      ],
      "name": "exists",
      "outputs": [
        {
          "name": "",
          "type": "bool"
        }
      ],
      "payable": false,
      "stateMutability": "view",
      "type": "function"
    },
    {
      "constant": true,
      "inputs": [
        {
          "name": "_index",
          "type": "uint256"
        }
      ],
      "name": "tokenByIndex",
      "outputs": [
        {
          "name": "",
          "type": "uint256"
        }
      ],
      "payable": false,
      "stateMutability": "view",
      "type": "function"
    },
    {
      "constant": true,
      "inputs": [
        {
          "name": "_tokenId",
          "type": "uint256"
        }
      ],
      "name": "ownerOf",
      "outputs": [
        {
          "name": "",
          "type": "address"
        }
      ],
      "payable": false,
      "stateMutability": "view",
      "type": "function"
    },
    {
      "constant": true,
      "inputs": [
        {
          "name": "_owner",
          "type": "address"
        }
      ],
      "name": "balanceOf",
      "outputs": [
        {
          "name": "",
          "type": "uint256"
        }
      ],
      "payable": false,
      "stateMutability": "view",
      "type": "function"
    },
    {
      "constant": true,
      "inputs": [],
      "name": "symbol",
      "outputs": [
        {
          "name": "",
          "type": "string"
        }
      ],
      "payable": false,
      "stateMutability": "view",
      "type": "function"
    },
    {
      "constant": false,
      "inputs": [
        {
          "name": "_to",
          "type": "address"
        },
        {
          "name": "_approved",
          "type": "bool"
        }
      ],
      "name": "setApprovalForAll",
      "outputs": [],
      "payable": false,
      "stateMutability": "nonpayable",
      "type": "function"
    },
    {
      "constant": false,
      "inputs": [
        {
          "name": "_from",
          "type": "address"
        },
        {
          "name": "_to",
          "type": "address"
        },
        {
          "name": "_tokenId",
          "type": "uint256"
        },
        {
          "name": "_data",
          "type": "bytes"
        }
      ],
      "name": "safeTransferFrom",
      "outputs": [],
      "payable": false,
      "stateMutability": "nonpayable",
      "type": "function"
    },
    {
      "constant": true,
      "inputs": [
        {
          "name": "_tokenId",
          "type": "uint256"
        }
      ],
      "name": "tokenURI",
      "outputs": [
        {
          "name": "",
          "type": "string"
        }
      ],
      "payable": false,
      "stateMutability": "view",
      "type": "function"
    },
    {
      "constant": true,
      "inputs": [
        {
          "name": "_owner",
          "type": "address"
        },
        {
          "name": "_operator",
          "type": "address"
        }
      ],
      "name": "isApprovedForAll",
      "outputs": [
        {
          "name": "",
          "type": "bool"
        }
      ],
      "payable": false,
      "stateMutability": "view",
      "type": "function"
    },
    {
      "inputs": [
        {
          "name": "_name",
          "type": "string"
        },
        {
          "name": "_symbol",
          "type": "string"
        }
      ],
      "payable": false,
      "stateMutability": "nonpayable",
      "type": "constructor"
    },
    {
      "anonymous": false,
      "inputs": [
        {
          "indexed": true,
          "name": "_from",
          "type": "address"
        },
        {
          "indexed": true,
          "name": "_to",
          "type": "address"
        },
        {
          "indexed": false,
          "name": "_tokenId",
          "type": "uint256"
        }
      ],
      "name": "Transfer",
      "type": "event"
    },
    {
      "anonymous": false,
      "inputs": [
        {
          "indexed": true,
          "name": "_owner",
          "type": "address"
        },
        {
          "indexed": true,
          "name": "_approved",
          "type": "address"
        },
        {
          "indexed": false,
          "name": "_tokenId",
          "type": "uint256"
        }
      ],
      "name": "Approval",
      "type": "event"
    },
    {
      "anonymous": false,
      "inputs": [
        {
          "indexed": true,
          "name": "_owner",
          "type": "address"
        },
        {
          "indexed": true,
          "name": "_operator",
          "type": "address"
        },
        {
          "indexed": false,
          "name": "_approved",
          "type": "bool"
        }
      ],
      "name": "ApprovalForAll",
      "type": "event"
    },
    {
      "constant": false,
      "inputs": [
        {
          "name": "_to",
          "type": "address"
        }
      ],
      "name": "mint721",
      "outputs": [
        {
          "name": "",
          "type": "uint256"
        }
      ],
      "payable": false,
      "stateMutability": "nonpayable",
      "type": "function"
    },
    {
      "constant": false,
      "inputs": [
        {
          "name": "_tokenId",
          "type": "uint256"
        },
        {
          "name": "_childContract",
          "type": "address"
        },
        {
          "name": "_childTokenId",
          "type": "uint256"
        }
      ],
      "name": "addChild",
      "outputs": [],
      "payable": false,
      "stateMutability": "nonpayable",
      "type": "function"
    },
    {
      "constant": false,
      "inputs": [
        {
          "name": "_tokenId",
          "type": "uint256"
        },
        {
          "name": "_childContract",
          "type": "address"
        },
        {
          "name": "_amount",
          "type": "uint256"
        }
      ],
      "name": "addChildAmount",
      "outputs": [],
      "payable": false,
      "stateMutability": "nonpayable",
      "type": "function"
    },
    {
      "constant": false,
      "inputs": [
        {
          "name": "_to",
          "type": "address"
        },
        {
          "name": "_tokenId",
          "type": "uint256"
        },
        {
          "name": "_childContract",
          "type": "address"
        },
        {
          "name": "_childTokenId",
          "type": "uint256"
        }
      ],
      "name": "transferChild",
      "outputs": [],
      "payable": false,
      "stateMutability": "nonpayable",
      "type": "function"
    },
    {
      "constant": false,
      "inputs": [
        {
          "name": "_to",
          "type": "address"
        },
        {
          "name": "_tokenId",
          "type": "uint256"
        },
        {
          "name": "_childContract",
          "type": "address"
        },
        {
          "name": "_amount",
          "type": "uint256"
        }
      ],
      "name": "transferChildAmount",
      "outputs": [],
      "payable": false,
      "stateMutability": "nonpayable",
      "type": "function"
    }
  ],
  "bytecode": "0x60806040523480156200001157600080fd5b50604051620027ac380380620027ac8339810180604052810190808051820192919060200180518201929190505050818181600490805190602001906200005a9291906200007e565b508060059080519060200190620000739291906200007e565b50505050506200012d565b828054600181600116156101000203166002900490600052602060002090601f016020900481019282601f10620000c157805160ff1916838001178555620000f2565b82800160010185558215620000f2579182015b82811115620000f1578251825591602001919060010190620000d4565b5b50905062000101919062000105565b5090565b6200012a91905b80821115620001265760008160009055506001016200010c565b5090565b90565b61266f806200013d6000396000f30060806040526004361061011d576000357c0100000000000000000000000000000000000000000000000000000000900463ffffffff16806306fdde0314610122578063081812fc146101b2578063095ea7b31461021f57806318160ddd1461026c57806323b872dd146102975780632c3ab0fc146103045780632f745c591461035b57806338334b82146103bc57806342842e0e146104335780634f558e79146104a05780634f6ccce7146104e55780636352211e1461052657806370a082311461059357806376a43891146105ea578063815a12f61461064157806395d89b4114610698578063a22cb46514610728578063b88d4fde14610777578063b9c4530e1461082a578063c87b56dd146108a1578063e985e9c514610947575b600080fd5b34801561012e57600080fd5b506101376109c2565b6040518080602001828103825283818151815260200191508051906020019080838360005b8381101561017757808201518184015260208101905061015c565b50505050905090810190601f1680156101a45780820380516001836020036101000a031916815260200191505b509250505060405180910390f35b3480156101be57600080fd5b506101dd60048036038101908080359060200190929190505050610a64565b604051808273ffffffffffffffffffffffffffffffffffffffff1673ffffffffffffffffffffffffffffffffffffffff16815260200191505060405180910390f35b34801561022b57600080fd5b5061026a600480360381019080803573ffffffffffffffffffffffffffffffffffffffff16906020019092919080359060200190929190505050610aa1565b005b34801561027857600080fd5b50610281610c67565b6040518082815260200191505060405180910390f35b3480156102a357600080fd5b50610302600480360381019080803573ffffffffffffffffffffffffffffffffffffffff169060200190929190803573ffffffffffffffffffffffffffffffffffffffff16906020019092919080359060200190929190505050610c74565b005b34801561031057600080fd5b5061035960048036038101908080359060200190929190803573ffffffffffffffffffffffffffffffffffffffff16906020019092919080359060200190929190505050610d8b565b005b34801561036757600080fd5b506103a6600480360381019080803573ffffffffffffffffffffffffffffffffffffffff16906020019092919080359060200190929190505050610f3f565b6040518082815260200191505060405180910390f35b3480156103c857600080fd5b50610431600480360381019080803573ffffffffffffffffffffffffffffffffffffffff16906020019092919080359060200190929190803573ffffffffffffffffffffffffffffffffffffffff16906020019092919080359060200190929190505050610fb6565b005b34801561043f57600080fd5b5061049e600480360381019080803573ffffffffffffffffffffffffffffffffffffffff169060200190929190803573ffffffffffffffffffffffffffffffffffffffff169060200190929190803590602001909291905050506111df565b005b3480156104ac57600080fd5b506104cb60048036038101908080359060200190929190505050611217565b604051808215151515815260200191505060405180910390f35b3480156104f157600080fd5b5061051060048036038101908080359060200190929190505050611288565b6040518082815260200191505060405180910390f35b34801561053257600080fd5b50610551600480360381019080803590602001909291905050506112c0565b604051808273ffffffffffffffffffffffffffffffffffffffff1673ffffffffffffffffffffffffffffffffffffffff16815260200191505060405180910390f35b34801561059f57600080fd5b506105d4600480360381019080803573ffffffffffffffffffffffffffffffffffffffff16906020019092919050505061133d565b6040518082815260200191505060405180910390f35b3480156105f657600080fd5b5061063f60048036038101908080359060200190929190803573ffffffffffffffffffffffffffffffffffffffff169060200190929190803590602001909291905050506113c1565b005b34801561064d57600080fd5b50610682600480360381019080803573ffffffffffffffffffffffffffffffffffffffff16906020019092919050505061156c565b6040518082815260200191505060405180910390f35b3480156106a457600080fd5b506106ad61158d565b6040518080602001828103825283818151815260200191508051906020019080838360005b838110156106ed5780820151818401526020810190506106d2565b50505050905090810190601f16801561071a5780820380516001836020036101000a031916815260200191505b509250505060405180910390f35b34801561073457600080fd5b50610775600480360381019080803573ffffffffffffffffffffffffffffffffffffffff16906020019092919080351515906020019092919050505061162f565b005b34801561078357600080fd5b50610828600480360381019080803573ffffffffffffffffffffffffffffffffffffffff169060200190929190803573ffffffffffffffffffffffffffffffffffffffff16906020019092919080359060200190929190803590602001908201803590602001908080601f016020809104026020016040519081016040528093929190818152602001838380828437820191505050505050919291929050505061176b565b005b34801561083657600080fd5b5061089f600480360381019080803573ffffffffffffffffffffffffffffffffffffffff16906020019092919080359060200190929190803573ffffffffffffffffffffffffffffffffffffffff169060200190929190803590602001909291905050506117aa565b005b3480156108ad57600080fd5b506108cc60048036038101908080359060200190929190505050611978565b6040518080602001828103825283818151815260200191508051906020019080838360005b8381101561090c5780820151818401526020810190506108f1565b50505050905090810190601f1680156109395780820380516001836020036101000a031916815260200191505b509250505060405180910390f35b34801561095357600080fd5b506109a8600480360381019080803573ffffffffffffffffffffffffffffffffffffffff169060200190929190803573ffffffffffffffffffffffffffffffffffffffff169060200190929190505050611a41565b604051808215151515815260200191505060405180910390f35b606060048054600181600116156101000203166002900480601f016020809104026020016040519081016040528092919081815260200182805460018160011615610100020316600290048015610a5a5780601f10610a2f57610100808354040283529160200191610a5a565b820191906000526020600020905b815481529060010190602001808311610a3d57829003601f168201915b5050505050905090565b60006001600083815260200190815260200160002060009054906101000a900473ffffffffffffffffffffffffffffffffffffffff169050919050565b6000610aac826112c0565b90508073ffffffffffffffffffffffffffffffffffffffff168373ffffffffffffffffffffffffffffffffffffffff1614151515610ae957600080fd5b8073ffffffffffffffffffffffffffffffffffffffff163373ffffffffffffffffffffffffffffffffffffffff161480610b295750610b288133611a41565b5b1515610b3457600080fd5b600073ffffffffffffffffffffffffffffffffffffffff16610b5583610a64565b73ffffffffffffffffffffffffffffffffffffffff16141580610ba55750600073ffffffffffffffffffffffffffffffffffffffff168373ffffffffffffffffffffffffffffffffffffffff1614155b15610c6257826001600084815260200190815260200160002060006101000a81548173ffffffffffffffffffffffffffffffffffffffff021916908373ffffffffffffffffffffffffffffffffffffffff1602179055508273ffffffffffffffffffffffffffffffffffffffff168173ffffffffffffffffffffffffffffffffffffffff167f8c5be1e5ebec7d5bd14f71427d1e84f3dd0314c0f7b2291e5b200ac8c7c3b925846040518082815260200191505060405180910390a35b505050565b6000600880549050905090565b80610c7f3382611ad5565b1515610c8a57600080fd5b600073ffffffffffffffffffffffffffffffffffffffff168473ffffffffffffffffffffffffffffffffffffffff1614151515610cc657600080fd5b600073ffffffffffffffffffffffffffffffffffffffff168373ffffffffffffffffffffffffffffffffffffffff1614151515610d0257600080fd5b610d0c8483611b6a565b610d168483611cd3565b610d208383611eeb565b8273ffffffffffffffffffffffffffffffffffffffff168473ffffffffffffffffffffffffffffffffffffffff167fddf252ad1be2c89b69c2b068fc378daa952ba7f163c4a11628f55a4df523b3ef846040518082815260200191505060405180910390a350505050565b8173ffffffffffffffffffffffffffffffffffffffff1660405180807f7472616e7366657246726f6d28616464726573732c616464726573732c75696e81526020017f7432353629000000000000000000000000000000000000000000000000000000815250602501905060405180910390207c010000000000000000000000000000000000000000000000000000000090043330846040518463ffffffff167c0100000000000000000000000000000000000000000000000000000000028152600401808473ffffffffffffffffffffffffffffffffffffffff1673ffffffffffffffffffffffffffffffffffffffff1681526020018373ffffffffffffffffffffffffffffffffffffffff1673ffffffffffffffffffffffffffffffffffffffff16815260200182815260200193505050506000604051808303816000875af1925050501515610edc57600080fd5b80600b600085815260200190815260200160002060008473ffffffffffffffffffffffffffffffffffffffff1673ffffffffffffffffffffffffffffffffffffffff16815260200190815260200160002060008282540192505081905550505050565b6000610f4a8361133d565b82101515610f5757600080fd5b600660008473ffffffffffffffffffffffffffffffffffffffff1673ffffffffffffffffffffffffffffffffffffffff16815260200190815260200160002082815481101515610fa357fe5b9060005260206000200154905092915050565b60008282604051808373ffffffffffffffffffffffffffffffffffffffff1673ffffffffffffffffffffffffffffffffffffffff166c010000000000000000000000000281526014018281526020019250505060405180910390206001900490506110213385611fc2565b151561102c57600080fd5b6001600b600086815260200190815260200160002060008373ffffffffffffffffffffffffffffffffffffffff1673ffffffffffffffffffffffffffffffffffffffff1681526020019081526020016000205414151561108b57600080fd5b8273ffffffffffffffffffffffffffffffffffffffff1660405180807f7472616e7366657228616464726573732c75696e743235362900000000000000815250601901905060405180910390207c0100000000000000000000000000000000000000000000000000000000900486846040518363ffffffff167c0100000000000000000000000000000000000000000000000000000000028152600401808373ffffffffffffffffffffffffffffffffffffffff1673ffffffffffffffffffffffffffffffffffffffff168152602001828152602001925050506000604051808303816000875af192505050151561118257600080fd5b6000600b600086815260200190815260200160002060008373ffffffffffffffffffffffffffffffffffffffff1673ffffffffffffffffffffffffffffffffffffffff168152602001908152602001600020819055505050505050565b806111ea3382611ad5565b15156111f557600080fd5b611211848484602060405190810160405280600081525061176b565b50505050565b60008060008084815260200190815260200160002060009054906101000a900473ffffffffffffffffffffffffffffffffffffffff169050600073ffffffffffffffffffffffffffffffffffffffff168173ffffffffffffffffffffffffffffffffffffffff161415915050919050565b6000611292610c67565b8210151561129f57600080fd5b6008828154811015156112ae57fe5b90600052602060002001549050919050565b60008060008084815260200190815260200160002060009054906101000a900473ffffffffffffffffffffffffffffffffffffffff169050600073ffffffffffffffffffffffffffffffffffffffff168173ffffffffffffffffffffffffffffffffffffffff161415151561133457600080fd5b80915050919050565b60008073ffffffffffffffffffffffffffffffffffffffff168273ffffffffffffffffffffffffffffffffffffffff161415151561137a57600080fd5b600260008373ffffffffffffffffffffffffffffffffffffffff1673ffffffffffffffffffffffffffffffffffffffff168152602001908152602001600020549050919050565b8173ffffffffffffffffffffffffffffffffffffffff1660405180807f7472616e7366657246726f6d28616464726573732c616464726573732c75696e81526020017f7432353629000000000000000000000000000000000000000000000000000000815250602501905060405180910390207c010000000000000000000000000000000000000000000000000000000090043330846040518463ffffffff167c0100000000000000000000000000000000000000000000000000000000028152600401808473ffffffffffffffffffffffffffffffffffffffff1673ffffffffffffffffffffffffffffffffffffffff1681526020018373ffffffffffffffffffffffffffffffffffffffff1673ffffffffffffffffffffffffffffffffffffffff16815260200182815260200193505050506000604051808303816000875af192505050151561151257600080fd5b80600b600085815260200190815260200160002060008473ffffffffffffffffffffffffffffffffffffffff1673ffffffffffffffffffffffffffffffffffffffff16815260200190815260200160002081905550505050565b60006115808260016008805490500161202d565b6008805490509050919050565b606060058054600181600116156101000203166002900480601f0160208091040260200160405190810160405280929190818152602001828054600181600116156101000203166002900480156116255780601f106115fa57610100808354040283529160200191611625565b820191906000526020600020905b81548152906001019060200180831161160857829003601f168201915b5050505050905090565b3373ffffffffffffffffffffffffffffffffffffffff168273ffffffffffffffffffffffffffffffffffffffff161415151561166a57600080fd5b80600360003373ffffffffffffffffffffffffffffffffffffffff1673ffffffffffffffffffffffffffffffffffffffff16815260200190815260200160002060008473ffffffffffffffffffffffffffffffffffffffff1673ffffffffffffffffffffffffffffffffffffffff16815260200190815260200160002060006101000a81548160ff0219169083151502179055508173ffffffffffffffffffffffffffffffffffffffff163373ffffffffffffffffffffffffffffffffffffffff167f17307eab39ab6107e8899845ad3d59bd9653f200f220920489ca2b5937696c3183604051808215151515815260200191505060405180910390a35050565b816117763382611ad5565b151561178157600080fd5b61178c858585610c74565b61179885858585612084565b15156117a357600080fd5b5050505050565b6117b43384611fc2565b15156117bf57600080fd5b80600b600085815260200190815260200160002060008473ffffffffffffffffffffffffffffffffffffffff1673ffffffffffffffffffffffffffffffffffffffff1681526020019081526020016000205414151561181d57600080fd5b8173ffffffffffffffffffffffffffffffffffffffff1660405180807f7472616e7366657228616464726573732c75696e743235362900000000000000815250601901905060405180910390207c0100000000000000000000000000000000000000000000000000000000900485836040518363ffffffff167c0100000000000000000000000000000000000000000000000000000000028152600401808373ffffffffffffffffffffffffffffffffffffffff1673ffffffffffffffffffffffffffffffffffffffff168152602001828152602001925050506000604051808303816000875af192505050151561191457600080fd5b80600b600085815260200190815260200160002060008473ffffffffffffffffffffffffffffffffffffffff1673ffffffffffffffffffffffffffffffffffffffff1681526020019081526020016000206000828254039250508190555050505050565b606061198382611217565b151561198e57600080fd5b600a60008381526020019081526020016000208054600181600116156101000203166002900480601f016020809104026020016040519081016040528092919081815260200182805460018160011615610100020316600290048015611a355780601f10611a0a57610100808354040283529160200191611a35565b820191906000526020600020905b815481529060010190602001808311611a1857829003601f168201915b50505050509050919050565b6000600360008473ffffffffffffffffffffffffffffffffffffffff1673ffffffffffffffffffffffffffffffffffffffff16815260200190815260200160002060008373ffffffffffffffffffffffffffffffffffffffff1673ffffffffffffffffffffffffffffffffffffffff16815260200190815260200160002060009054906101000a900460ff16905092915050565b600080611ae1836112c0565b90508073ffffffffffffffffffffffffffffffffffffffff168473ffffffffffffffffffffffffffffffffffffffff161480611b5057508373ffffffffffffffffffffffffffffffffffffffff16611b3884610a64565b73ffffffffffffffffffffffffffffffffffffffff16145b80611b615750611b608185611a41565b5b91505092915050565b8173ffffffffffffffffffffffffffffffffffffffff16611b8a826112c0565b73ffffffffffffffffffffffffffffffffffffffff16141515611bac57600080fd5b600073ffffffffffffffffffffffffffffffffffffffff166001600083815260200190815260200160002060009054906101000a900473ffffffffffffffffffffffffffffffffffffffff1673ffffffffffffffffffffffffffffffffffffffff16141515611ccf5760006001600083815260200190815260200160002060006101000a81548173ffffffffffffffffffffffffffffffffffffffff021916908373ffffffffffffffffffffffffffffffffffffffff160217905550600073ffffffffffffffffffffffffffffffffffffffff168273ffffffffffffffffffffffffffffffffffffffff167f8c5be1e5ebec7d5bd14f71427d1e84f3dd0314c0f7b2291e5b200ac8c7c3b925836040518082815260200191505060405180910390a35b5050565b6000806000611ce28585612272565b60076000858152602001908152602001600020549250611d4e6001600660008873ffffffffffffffffffffffffffffffffffffffff1673ffffffffffffffffffffffffffffffffffffffff168152602001908152602001600020805490506123a090919063ffffffff16565b9150600660008673ffffffffffffffffffffffffffffffffffffffff1673ffffffffffffffffffffffffffffffffffffffff16815260200190815260200160002082815481101515611d9c57fe5b9060005260206000200154905080600660008773ffffffffffffffffffffffffffffffffffffffff1673ffffffffffffffffffffffffffffffffffffffff16815260200190815260200160002084815481101515611df657fe5b90600052602060002001819055506000600660008773ffffffffffffffffffffffffffffffffffffffff1673ffffffffffffffffffffffffffffffffffffffff16815260200190815260200160002083815481101515611e5257fe5b9060005260206000200181905550600660008673ffffffffffffffffffffffffffffffffffffffff1673ffffffffffffffffffffffffffffffffffffffff168152602001908152602001600020805480919060019003611eb291906125f2565b50600060076000868152602001908152602001600020819055508260076000838152602001908152602001600020819055505050505050565b6000611ef783836123b9565b600660008473ffffffffffffffffffffffffffffffffffffffff1673ffffffffffffffffffffffffffffffffffffffff168152602001908152602001600020805490509050600660008473ffffffffffffffffffffffffffffffffffffffff1673ffffffffffffffffffffffffffffffffffffffff168152602001908152602001600020829080600181540180825580915050906001820390600052602060002001600090919290919091505550806007600084815260200190815260200160002081905550505050565b60008273ffffffffffffffffffffffffffffffffffffffff1660008084815260200190815260200160002060009054906101000a900473ffffffffffffffffffffffffffffffffffffffff1673ffffffffffffffffffffffffffffffffffffffff1614905092915050565b6120378282612511565b600880549050600960008381526020019081526020016000208190555060088190806001815401808255809150509060018203906000526020600020016000909192909190915055505050565b6000806120a68573ffffffffffffffffffffffffffffffffffffffff166125c1565b15156120b55760019150612269565b8473ffffffffffffffffffffffffffffffffffffffff1663f0b9e5ba8786866040518463ffffffff167c0100000000000000000000000000000000000000000000000000000000028152600401808473ffffffffffffffffffffffffffffffffffffffff1673ffffffffffffffffffffffffffffffffffffffff16815260200183815260200180602001828103825283818151815260200191508051906020019080838360005b8381101561217757808201518184015260208101905061215c565b50505050905090810190601f1680156121a45780820380516001836020036101000a031916815260200191505b50945050505050602060405180830381600087803b1580156121c557600080fd5b505af11580156121d9573d6000803e3d6000fd5b505050506040513d60208110156121ef57600080fd5b8101908080519060200190929190505050905063f0b9e5ba7c0100000000000000000000000000000000000000000000000000000000027bffffffffffffffffffffffffffffffffffffffffffffffffffffffff1916817bffffffffffffffffffffffffffffffffffffffffffffffffffffffff19161491505b50949350505050565b8173ffffffffffffffffffffffffffffffffffffffff16612292826112c0565b73ffffffffffffffffffffffffffffffffffffffff161415156122b457600080fd5b6123076001600260008573ffffffffffffffffffffffffffffffffffffffff1673ffffffffffffffffffffffffffffffffffffffff168152602001908152602001600020546123a090919063ffffffff16565b600260008473ffffffffffffffffffffffffffffffffffffffff1673ffffffffffffffffffffffffffffffffffffffff16815260200190815260200160002081905550600080600083815260200190815260200160002060006101000a81548173ffffffffffffffffffffffffffffffffffffffff021916908373ffffffffffffffffffffffffffffffffffffffff1602179055505050565b60008282111515156123ae57fe5b818303905092915050565b600073ffffffffffffffffffffffffffffffffffffffff1660008083815260200190815260200160002060009054906101000a900473ffffffffffffffffffffffffffffffffffffffff1673ffffffffffffffffffffffffffffffffffffffff1614151561242657600080fd5b8160008083815260200190815260200160002060006101000a81548173ffffffffffffffffffffffffffffffffffffffff021916908373ffffffffffffffffffffffffffffffffffffffff1602179055506124ca6001600260008573ffffffffffffffffffffffffffffffffffffffff1673ffffffffffffffffffffffffffffffffffffffff168152602001908152602001600020546125d490919063ffffffff16565b600260008473ffffffffffffffffffffffffffffffffffffffff1673ffffffffffffffffffffffffffffffffffffffff168152602001908152602001600020819055505050565b600073ffffffffffffffffffffffffffffffffffffffff168273ffffffffffffffffffffffffffffffffffffffff161415151561254d57600080fd5b6125578282611eeb565b8173ffffffffffffffffffffffffffffffffffffffff16600073ffffffffffffffffffffffffffffffffffffffff167fddf252ad1be2c89b69c2b068fc378daa952ba7f163c4a11628f55a4df523b3ef836040518082815260200191505060405180910390a35050565b600080823b905060008111915050919050565b60008082840190508381101515156125e857fe5b8091505092915050565b81548183558181111561261957818360005260206000209182019101612618919061261e565b5b505050565b61264091905b8082111561263c576000816000905550600101612624565b5090565b905600a165627a7a72305820d27bde790f85c359a13c4b139e699262629cf37950d9b772a332a3b27ff0d9240029",
  "source": "\n\n//jshint ignore: start\n\npragma solidity ^0.4.21;\n\nimport 'zeppelin-solidity/contracts/token/ERC721/ERC721Token.sol';\n\ncontract Composable is ERC721Token {\n  \n  /**************************************\n  * ERC-721 Setup Methods for Testing\n  **************************************/\n  \n  //pass through constructor, remove?\n  constructor(string _name, string _symbol) public ERC721Token(_name, _symbol) {}\n  \n  /// wrapper on minting new 721\n  function mint721(address _to) public returns (uint256) {\n    _mint(_to, allTokens.length + 1);\n    return allTokens.length;\n  }\n  \n  function _owns(address _claimant, uint256 _tokenId) internal view returns (bool) {\n    return(tokenOwner[_tokenId] == _claimant);\n  }\n  \n  /**************************************\n  * ERC-998 Begin Composable Methods\n  **************************************/\n  \n  /// tokenId of composable, mapped to child contract address\n  /// child contract address mapped to child tokenId or amount\n  mapping(uint256 => mapping(address => uint256)) children;\n  \n  /**************************************\n  * Adding Children\n  **************************************/\n  \n  /// add ERC-721 children by tokenId\n  /// requires owner to approve transfer from this contract\n  /// call _childContract.approve(this, _childTokenId)\n  /// where this is the address of the parent token contract\n  function addChild(\n    uint256 _tokenId,\n    address _childContract,\n    uint256 _childTokenId\n  ) public {\n    // call the transfer function of the child contract\n    // if approve was called using the address of this contract\n    // _childTokenId will be transferred to this contract\n    require(\n      _childContract.call(\n        bytes4(keccak256(\"transferFrom(address,address,uint256)\")),\n        msg.sender, this, _childTokenId\n      )\n    );\n    // if successful, add children to the mapping\n    children[_tokenId][_childContract] = _childTokenId;\n  }\n  \n  /// add ERC-20 children by amount\n  /// requires owner to approve transfer from this contract\n  /// call _childContract.approve(this, _amount)\n  function addChildAmount(\n    uint256 _tokenId,\n    address _childContract,\n    uint256 _amount\n  ) public {\n    // call the transfer function of the child contract\n    // if approve was called with the address of this contract\n    // _amount of child tokens will be transferred to the contract\n    require(\n      _childContract.call(\n        bytes4(keccak256(\"transferFrom(address,address,uint256)\")),\n        msg.sender, this, _amount\n      )\n    );\n    // if successful, add children to the mapping\n    children[_tokenId][_childContract] += _amount;\n  }\n  \n  /**************************************\n  * Transferring Children\n  **************************************/\n  \n  /// transfer ERC-721 child by _childTokenId\n  function transferChild(\n    address _to,\n    uint256 _tokenId,\n    address _childContract,\n    uint256 _childTokenId\n  ) public {\n    // require ownership of parent token &&\n    // check parent token owns the child token\n    // use the 'pseudo address' for the specific child tokenId\n    address childToken = address(keccak256(_childContract, _childTokenId));\n    require(_owns(msg.sender, _tokenId));\n    require(children[_tokenId][childToken] == 1);\n    require(\n      _childContract.call(\n        // if true, transfer the child token\n        // not a delegate call, the child token is owned by this contract\n        bytes4(keccak256(\"transfer(address,uint256)\")), _to, _childTokenId\n      )\n    );\n    // remove the parent token's ownership of the child token\n    children[_tokenId][childToken] = 0;\n  }\n  \n  /// transfer ERC-20 child by _amount\n  function transferChildAmount(\n    address _to,\n    uint256 _tokenId,\n    address _childContract,\n    uint256 _amount\n  ) public {\n    // require ownership of parent token &&\n    // check parent token owns enough balance of the child tokens\n    require(_owns(msg.sender, _tokenId));\n    require(children[_tokenId][_childContract] == _amount);\n    require(\n      _childContract.call(\n        // if true, transfer the child tokens\n        // not a delegate call, the child tokens are owned by this contract\n        bytes4(keccak256(\"transfer(address,uint256)\")),\n        _to, _amount\n      )\n    );\n    //decrement the parent token's balance of child tokens by _amount\n    children[_tokenId][_childContract] -= _amount;\n  }\n  \n}",
  "sourcePath": "/home/matt/Downloads/Projects/comp/contracts/Composable.sol",
  "compiler": {
    "name": "solc",
    "version": "0.4.23+commit.124ca40d.Emscripten.clang"
  },
  "schemaVersion": "2.0.0",
  "updatedAt": "2018-04-24T02:42:42.494Z"
}